:020000040800F2
:10000000D004002099080008A1080008A3080008EF
:1000100000000000000000000000000000000000E0
:10002000000000000000000000000000A50800081B
:100030000000000000000000A7080008F7120008F8
:10004000AB080008AB080008AB080008AB080008C4
:10005000AB080008C9060008610700088310000803
:10006000AB080008AB080008AB080008AB080008A4
:10007000AB080008AB080008AB080008AB08000894
:10008000F70A0008AB08000800000000E7130008AA
:10009000AB080008AB080008AB080008AB08000874
:1000A000AB080008AB080008AB080008D30C000838
:1000B000AB08000800000000AB08000800000000CA
:1000C0000448854601F0D4F900480047AF02000813
:1000D000C046C046D004002010B5002819DAF74AFF
:1000E00003071B0F083B9B089B00D2588307DC0EBD
:1000F000FF23A3409A438B071B0E8407E40EA34003
:100100001A43EE4B0407240F083CA408A4001A511C
:1001100018E0EB4A03231B02D21883089B00D25835
:100120008307DC0EFF23A3409A438B071B0E840733
:10013000E40EA3401A43E24B032424021B19840853
:10014000A4001A5110BDDF48406921214904084329
:10015000DC494861DC480921C90608600120000724
:10016000C8600520D94908600120000488617047F3
:1001700010B5D7484069D6494861D6480068012182
:1001800089030843D34908600846C06801218903F0
:100190000843D049C86000210720FFF79DFF0720D2
:1001A00000F049FBCA488068C9498860C9480068AE
:1001B00003210843C74908600846C0680321084373
:1001C000C449C86000210520FFF786FF052000F024
:1001D00032FBBF48C068FF2109010843BC49C86021
:1001E000BC48006860210843BA4908600846C068F6
:1001F00060210843B749C86000210720FFF76CFF62
:10020000072000F018FB10BD10B5FFF79CFF00F0B1
:10021000A9FCFFF7ADFFB049B048006801F000F954
:10022000441E204601F056F800F048FC01F0BCF8EE
:1002300010BDAB4909780143A94A11707047A8491C
:1002400009788143A64A1170704770B505460E467D
:10025000144601209D498861281200F0D1FCE8B2C3
:1002600000F0CEFC002000F0CBFC002000F0C8FC29
:10027000200E00F0C5FC2102080E00F0C1FC210494
:10028000080E00F0BDFCE0B200F0BAFC301200F045
:10029000B7FCF0B200F0B4FC00BF9248C069402146
:1002A00008400028F9D088028849886170BDE8B00C
:1002B000FFF7AAFF002000F0D4FD8B49884203D14C
:1002C00000218A4800F026FE002000F0CAFD88497F
:1002D000088001207D498861002000F091FC002009
:1002E00000F08EFC002000F08BFC002000F088FC69
:1002F000002000F085FC002000F082FC012000F0CE
:10030000B0FD0012009000F07BFC012000F0A9FD80
:10031000C0B2009000F074FC75490988081200F022
:100320006FFC7349087800F06BFC00BF6D48C06932
:10033000402108400028F9D08802644988616D484E
:100340006D4908606D49086001245DE06106080E92
:1003500000F087FD65906100491CC8B200F081FD86
:1003600007463D0465980543681C00280AD1601EB5
:1003700063490870552000F043FC6148007800F0A4
:100380003FFC43E0002D03D0601E800001A90D500A
:10039000082000F035FC611E88B200F031FC00201E
:1003A00000F02EFC002000F02BFC611E890001AA49
:1003B0005158080E00F024FC611E890001AA515812
:1003C0000902080E00F01CFC611E890001AA515AA6
:1003D0000904080E00F014FC611E890001AA505C9B
:1003E00000F00EFC42490988081200F009FC40495F
:1003F000087800F005FC00BF3A48C0694021084079
:100400000028F9D0601CC4B2642C9FDB00BF01201F
:100410003C49087057E1002067903B48007800286D
:1004200078D03A4800680028FAD000203649087091
:10043000374800781E2804DA3448006840083349F9
:100440000860002032490870304806680920C0065C
:10045000008A01218903084000285CD166900024AD
:100460000AE0A00001A90858B04203D1012066901B
:10047000FF206790601CC4B2214800788442F0DB02
:100480006698002874D11E480078401CC1B23046DE
:1004900000F040FD00286BD019480078800001A9C9
:1004A0000E5017480078642804DA15480078401C7C
:1004B0001349087012480078679059E01CED00E07D
:1004C00000E100E000100240500028000014004845
:1004D0000000014000040140A08601002800002027
:1004E0002200002000380140FFFF000001790909C7
:1004F0002400002050C300000C0000201000002049
:1005000015000020210000201B0000200400002016
:100510001800002069E000206790002423E03002EA
:10052000000AA10001AA51580902090A884218D1FB
:1005300001206790FFF783FEC2480078002802D0B0
:1005400000F00BFE01E000F0F8FD012000F089FC56
:10055000C0B2009000F07EFABA480078BA494870FC
:1005600005E0601CC4B2B94800788442D7DB00BF04
:100570000120B7498861072000F042FB679800F02E
:100580003FFB002000F03CFB002000F039FBB149AC
:10059000087800F035FBAF4909880904080E00F01F
:1005A0002FFBAC4909680902080E00F029FBA94994
:1005B0000968080E00F024FBA7490988081200F01A
:1005C0001FFBA549087800F01BFB00BFA348C069CA
:1005D000402108400028F9D088029D498861002008
:1005E0009C49086000269E4908709E4800780028B3
:1005F00069D09C480078C007C00F002847D09948B0
:1006000000788008800097490870002000F029FCDD
:100610009149088001208E4988618B49087800F053
:10062000EFFA8949487800F0EBFA8749887800F0BA
:10063000E7FA8549C87800F0E3FA8349087900F0C1
:10064000DFFA8149487900F0DBFA7F49887900F0C8
:10065000D7FA7D49C87900F0D3FA7F490988081292
:1006600000F0CEFA7C49087800F0CAFA00BF7B4857
:10067000C069402108400028F9D088027449886187
:100680000020714948708870C870087148717548B9
:10069000007802210840002815D06A480078002818
:1006A00002D000F05AFD01E000F047FD012000F00B
:1006B000D8FBC0B2009000F0CDF96A480078022162
:1006C000884368490870A6E60920C006008A02210E
:1006D000084000281CD164480078002807D16349ED
:1006E00008606349087001206249087010E05E48A4
:1006F0000078212806DA5D4800684000401C5B490C
:10070000086005E05B4800780221084359490870F9
:100710000920C006008AC007C00F002811D1524826
:100720000078002804D1514908605249087008E057
:100730004D480078212804DA4C48006840004B49B5
:10074000086049480078401C474908704A484B49AE
:1007500008604B4840690321084349494861704794
:100760000920C006008A08210840002824D13C48FE
:100770000078002807D137490860424908700120F5
:100780004149087010E036480078212806DA3148DF
:1007900000684000401C2F49086005E03A48007896
:1007A00002210843384908702D480078401C2C4924
:1007B00008703148354908600920C006008A0421C4
:1007C000084000281BD126480078002806D121497E
:1007D00008602C4908702C49087008E0204800780F
:1007E000212804DA1B48006840001A4908601C48A8
:1007F0000078401C1A4908701F48244908602048A6
:1008000040690C2108431E494861704770471448ED
:100810000078172809DD01201A490870104800786F
:100820001B49087000200E49087000200C49087010
:10083000704700BFFEE7C206D20E01219140154A63
:1008400011607047210000204C000020150000209E
:10085000001400480400002024000020003801405B
:1008600014000020220000201700002008000020B3
:100870001C0000201A00002050C3000010000020BF
:10088000000401401B000020190000200C00002083
:100890001800002000E100E00448804704480047B9
:1008A000FEE7FEE7FEE7FEE7FEE7FEE72B090008AE
:1008B000C100000811205F4908605F4840685E4938
:1008C0004860084640684860084640687F21C90380
:1008D000884359494860084640680521C9040843CF
:1008E00055494860084600680121090608435249F5
:1008F000086000BF504800680121490608400028F0
:10090000F8D04D484068800880004B494860084650
:100910004068022108434849486000BF4648406893
:100920000C2108400828F9D1704710B542480068EA
:100930000121084340490860084640683F49084093
:100940003D494860084600683D4908403A4908600A
:100950000846006801218904884337490860084631
:1009600040683F2109048843334948600846C06A0B
:1009700000090001C8620846006BFF21543188431A
:100980002D4908630846406B40084000486300203A
:100990008860FFF78FFF10BDF8B500250024002602
:1009A0000027254840680C2108400546002D04D04A
:1009B000042D06D0082D2AD107E0224822490860DC
:1009C00029E020482049086025E01B4840680F21A5
:1009D000890408400446184840680321C9030840B8
:1009E0000646A00C841C002E04D11848604316490A
:1009F00008600BE01048C06A0007000F471C39462A
:100A0000104800F00DFD60430F49086003E00D48F9
:100A10000D49086000BF00BF07484068F02108404A
:100A200000090B490D5C08480068E8400649086069
:100A3000F8BD000000200240001002400CB8FFF892
:100A4000FFFFF6FE00127A002800002000093D009A
:100A50002C0000203C49088070473C48C0690121B7
:100A600008433A49C8610020394908813948490694
:100A7000C8620846808BC9140843C90488830846A5
:100A8000808B03214903084301218907888330486B
:100A90000088891408432E490880084600884914B4
:100AA00008432B490880480600880121084389072C
:100AB00008802948264920310860704710B523482E
:100AC000C069022108432149C8614B2080012349A4
:100AD00008817D20C00021492039C862084600886D
:100AE000012108431D4920390880012088811020F8
:100AF00000F023F810BD10B518482038008A4008CF
:100B000040001649203908820F480088002813D079
:100B10000D480088401E0C490880084600880028BF
:100B20000AD1032080040921C90688610120FFF74A
:100B300080FB072000F001F810BDC206D20E012193
:100B40009140074A116070473C00002000100240AD
:100B500020000040BF5D0000204E00002004004047
:100B600000E100E010B5994880690121890308433C
:100B700096498861FF2111310920C00641629348DE
:100B8000006B80088000914908630846006B0121D2
:100B900008438E4908638E4800688E4908438C4993
:100BA0000860084600688914884389490860084637
:100BB0004068032109038843854948600846406826
:100BC0000121C9050843824948600846406923213C
:100BD00008437F4948614B21C9017F4800684A109A
:100BE000801800F01DFC7A4988810F211B2000F03D
:100BF000B5F81B2001218140784A116000BF10BD6B
:100C000000BF7349C969802211400029F9D0C1058C
:100C1000C90D6F4A20321181704730B502460B462C
:100C20006F4800786424201A984210DD00210BE000
:100C3000505C6C4C6A4D2D78605569480078401CBA
:100C4000674C2070481CC1B29942F1DB25E00021BD
:100C50000BE0505C634C624D2D7860556048007825
:100C6000401C5F4C2070481CC1B25D480078642471
:100C7000201A8842EDDC0020594C20700BE0505CBB
:100C8000584C574D2D78605555480078401C544CB1
:100C90002070481CC1B29942F1DB012030BD00B583
:100CA000034600BF504800780028FBD14F4803603E
:100CB00000204F4908700978585CFFF7A1FF4448AD
:100CC00000688021084342490860012046490870B5
:100CD00000BD10B500243E48C0692021084000280E
:100CE00010D03B4820308088C4B22046FFF788FFF0
:100CF00040484149097844543F480078401C3E49E7
:100D000008702AE03248C0690121C9020840002861
:100D10000ED02F48006A08432D490862354800F07C
:100D20002DFA00203449087032490872487214E0E4
:100D30002748C0698021084000280ED02C48007840
:100D4000032805D12248006888432149086004E04F
:100D500027480078401C2649087010BD10B50028AF
:100D600019DA264A03071B0F083B9B089B00D25841
:100D70008307DC0EFF23A3409A438B071B0E8407D7
:100D8000E40EA3401A431D4B0407240F083CA4089B
:100D9000A4001A5118E0114A03231B02D218830839
:100DA0009B00D2588307DC0EFF23A3409A438B0796
:100DB0001B0E8407E40EA3401A43084B03242402AD
:100DC0001B198408A4001A5110BD00000010024035
:100DD000003801402D0000042800002000E100E060
:100DE000420000206A00002045000020480000204A
:100DF0004100002060000020400000201CED00E0C9
:100E00009948006980210840002804D097489649F5
:100E100048609748486070479348006980210843BC
:100E200091490861704790490969022211438E4A2D
:100E30001161114648610969402211438A4A1161D2
:100E400000BF8949C968C907C90F0029F9D1864976
:100E5000096902229143844A11617047014608885A
:100E6000704700B502465100824BC818FFF7F6FFE5
:100E700000BD7D4A126901231A437B4B1A6100BFF2
:100E8000794AD268D207D20F002AF9D1018000BF77
:100E9000754AD268D207D20F002AF9D1724A126974
:100EA00052085200704B1A617047F0B50646002494
:100EB0002CE0A106080EFFF7D4FF0746A100891C0D
:100EC000C8B2FFF7CEFF0546280438436A49884276
:100ED0001AD1FFF795FF002410E0B7B2350CA1003E
:100EE000644A88183946FFF7C4FFA100891C614A8B
:100EF00088182946FFF7BDFF601C84B2322CECDB5A
:100F0000FFF78AFF0020F0BD601C84B2FA2CD0DB12
:100F10000120F8E730B504460D46FFF771FFA1B296
:100F2000AA00544BD018FFF7A4FF210CAA00921C72
:100F3000504BD018FFF79DFFFFF76EFF012030BD2B
:100F400000B50246D007C00F002807D0FE2111408F
:100F5000484BC818FFF782FF001200BD45495018E2
:100F6000FFF77CFFC0B2F8E7F0B5B3B005460E4618
:100F7000C82101A800F071FA2846FFF772FF074662
:100F8000B74202D1012033B0F0BD3B4887420BD1BC
:100F9000FFF736FF6900374A88183146FFF769FFC7
:100FA000FFF73AFF0220EEE7002409E06100314A32
:100FB0008818FFF753FF610001AA5052601CC4B2A9
:100FC000642CF3DB680001A90E52FFF719FF2948D2
:100FD000FFF729FF002409E0620001AB995A620083
:100FE000244BD018FFF745FF601CC4B2642CF3DB20
:100FF000FFF712FF0020C6E730B599B0054664211F
:10100000684600F02AFA002409E06100194A8818AD
:10101000FFF724FF61006A465052601CC4B2322CB4
:10102000F3DB002406E06000285A61006A46505253
:10103000601CC4B2052CF6DBFFF7E2FE0D48FFF79B
:10104000F2FE002409E062006B46995A6200094BE7
:10105000D018FFF70EFF601CC4B2322CF3DBFFF791
:10106000DBFE19B030BD00000020024023016745BF
:10107000AB89EFCD003C0008FFFF00000120704766
:1010800070470920C006008A4021084000281CD172
:1010900022480078002807D12149086021490870BA
:1010A00001202149087010E01C480078212806DA48
:1010B0001B4800684000401C1949086005E01A48B8
:1010C000007802210843184908700920C006008AE8
:1010D00020210840002811D110480078002804D1B0
:1010E0000F4908601049087008E00C480078212872
:1010F00004DA0B4800684000094908600748007896
:10110000401C0649087009480949086009484069B7
:10111000602108430749486170470000140000201F
:10112000040000201B0000201900002050C3000014
:101130000C00002000040140704710B50820092170
:10114000C9068861072000F0B5F804200921C90606
:10115000886101205B49087010BD10B50120C004F2
:101160000921C9068861072000F0A4F8042009219C
:10117000C906886100205349087010BD70B5044647
:10118000207A0002617A08434F490988884227D1B2
:101190000120FFF74EF82078802108434B49087062
:1011A000207801281DD1FFF74AF84648007800282A
:1011B00002D0FFF7D2FF01E0FFF7BFFF6078002801
:1011C00003D06078FFF746FC06E00120FFF749FEF8
:1011D000C6B23046FFF73EFC3A4800783B494870BB
:1011E00064E02078032817D10120FFF728F8FFF7E3
:1011F000B4FF6078002803D06078FFF72BFC06E08E
:101200000120FFF72EFEC6B23046FFF723FC2D4823
:1012100000782E49487049E02078022817D1012033
:10122000FFF70DF8FFF789FF6078002803D060789A
:10123000FFF710FC06E00120FFF713FEC6B23046B0
:10124000FFF708FC1F480078204948702EE02078FE
:10125000042808D10920C006008A02210840401055
:101260001A49487022E02078052814D1E278120249
:10127000A3781A4311466078FFF776FE1349087188
:101280006078FFF7EEFD0546607810494870281237
:10129000C8708D700AE02078062807D16078FFF7C3
:1012A000E0FD054628120949C8708D7000202072A3
:1012B000607270BDC206D20E01219140044A1160D5
:1012C0007047000021000020240000204C00002076
:1012D00080E100E04849486188610721464A116180
:1012E000704701B545490098086000BF4348006851
:1012F0000028FBD108BD10B540480068002804D084
:101300003E480068401E3D4908603D48006800288E
:101310000AD03B480068401E39490860084600680A
:10132000002801D1FFF773FA3648006800280AD078
:1013300034480068401E33490860084600680028A9
:1013400001D1FFF764FA0920C006008A8021084015
:1013500000280DD12C480088401C2B4908800846E5
:1013600000882A49884206DD0220FEF762FF02E07B
:101370000020254908800920C006008A1021084065
:1013800000280DD122480088401C214908800846C9
:1013900000881E49884206DD0420FEF74AFF02E06D
:1013A00000201B49088010BD1A48C069FF21013187
:1013B00008431849C8611920400117490881642071
:1013C00015492039C862084600880121084312499E
:1013D00020390880012088811320012181400F4A93
:1013E000116000BF70470C482038008A4008400058
:1013F000094920390882704700E000E054000020CD
:101400000C000020100000205A00002010270000CF
:101410005C000020001002402020004000E100E0BD
:1014200030B50B46014600202022012409E00D467C
:10143000D5409D4205D31D469540491B2546954004
:1014400040191546521E002DF1DC30BDD2B201E02C
:101450000270401C491EFBD270470022F6E710B50F
:1014600013460A4604461946FFF7F0FF204610BD12
:10147000064C0125064E05E0E36807CC2B430C3CE7
:1014800098471034B442F7D3FEF71EFEB414000898
:10149000D414000802E008C8121F08C1002AFAD1BB
:1014A00070477047002001E001C1121F002AFBD1E4
:1014B00070470000D4140008000000206000000005
:1014C0009414000834150008600000207004000027
:1014D000A41400080000000000000000000000004C
:1014E00000000000000000000000000000000000FC
:1014F000000000000000000000000000006CDC02A2
:1015000000000000000000000102030406070809B3
:1015100000000000000000000000000000000000CB
:1015200000000000000000000000000000000000BB
:0415300000000000B7
:04000005080000C12E
:00000001FF
