:020000040800F2
:1000000078060020F1040008F9040008FB04000849
:1000100000000000000000000000000000000000E0
:10002000000000000000000000000000FD040008C7
:100030000000000000000000FF040008731000082A
:100040000305000803050008030500080305000870
:10005000030500086B04000885040008930E0008DF
:100060000305000803050008030500080305000850
:100070000305000803050008030500080305000840
:10008000F30600080305000800000000C510000882
:100090000305000803050008030500080305000820
:1000A00003050008030500080305000869090008A6
:1000B0000305000800000000030500080000000020
:1000C0000448854601F0CEF900480047B702000811
:1000D000C046C0467806002010B5002819DAF14A5B
:1000E00003071B0F083B9B089B00D2588307DC0EBD
:1000F000FF23A3409A438B071B0E8407E40EA34003
:100100001A43E84B0407240F083CA408A4001A5122
:1001100018E0E54A03231B02D21883089B00D2583B
:100120008307DC0EFF23A3409A438B071B0E840733
:10013000E40EA3401A43DC4B032424021B19840859
:10014000A4001A5110BDD94840692121490408432F
:10015000D6494861D6480921C9060860D548C86013
:100160000520D5490860012000048861704710B55A
:10017000D2484069D1494861D148006801218903CA
:100180000843CF4908600846C06801218903084335
:10019000CB49C86000210720FFF79EFF072000F031
:1001A0007AF9C6488068C5498860C5480068032157
:1001B0000843C34908600846806801210843C049D4
:1001C00088600846C06802210843BD49C860002114
:1001D0000520FFF781FF052000F05DF9B748C068F2
:1001E000FF210843B549C860B5480068302108437D
:1001F000B34908600846C06830210843B049C86068
:1002000000210720FFF768FF072000F044F910BD28
:1002100010B5FFF798FF00F0F7FA00F04BFA10BDA9
:1002200000BFA849C969802211400029F9D0C10541
:10023000C90DA44A203211817047A34909780143AE
:10024000A14A11707047A049097881439E4A1170F4
:10025000704730B504460D46134601209649886123
:100260002012FFF7DDFFE0B2FFF7DAFF0020FFF713
:10027000D7FF0020FFF7D4FF180EFFF7D1FF1902B8
:10028000080EFFF7CDFF1904080EFFF7C9FFD8B21B
:10029000FFF7C6FF2812FFF7C3FFE8B2FFF7C0FF62
:1002A00000BF8848C069402108400028F9D0880272
:1002B0008149886130BDFFF7ABFF0020834908709A
:1002C0008349087083490968088000F04AFC824924
:1002D000884206D1AA20FFF7A3FF00217F4800F043
:1002E00099FC022000F03DFC7B49884205D1FF20AB
:1002F0005F307B490968088005E0022000F031FC8E
:10030000774909680880032000F02BFC7249884275
:1003100005D1FF202D3073490968088005E00320CE
:1003200000F01FFC6F4909680880002000F019FCEC
:100330006D490968088001205F4988616A49096838
:1003400009880812FFF76CFF674909680878FFF70A
:1003500067FF6349096809880812FFF761FF604970
:1003600009680878FFF75CFF5E4909680988081288
:10037000FFF756FF5B4909680878FFF751FF00BF98
:100380005048C069402108400028F9D088024A49F5
:10039000886101204E490870032080040921C906A4
:1003A000886161E00920C006008A012149030840F4
:1003B000002805D100F092FD022000F077F90CE052
:1003C0000920C006008A012189030840002804D1C1
:1003D00000F06FFD022000F069F93B48007800282A
:1003E00042D0394800780121084300283CD03648E3
:1003F000007888433449087001202F4988613B49BF
:100400000878FFF70DFF39494878FFF709FF3749AA
:100410008878FFF705FF3549C878FFF701FF3349B2
:100420000879FFF7FDFE31494879FFF7F9FE2F49BA
:100430008879FFF7F5FE2D49C879FFF7F1FE2A49C3
:10044000096809880812FFF7EBFE27490968087850
:10045000FFF7E6FE00BF1B48C069402108400028A6
:10046000F9D08802144988619CE715484069022147
:10047000084313494861084640690121084310496F
:10048000486170470E4840690C2108430C49486197
:10049000704700BFFEE7C206D20E01219140024A1A
:1004A000116070471CED00E000E100E00010024028
:1004B00050002800500000100014004800000140C7
:1004C0000004014000380140060000200500002023
:1004D0000400002018000020FFFF00000178000049
:1004E0000C00002010000020080000205C0000200C
:1004F0000448804704480047FEE7FEE7FEE7FEE7C2
:10050000FEE7FEE783050008C100000811205F49EF
:1005100008605F4840685E49486008464068486037
:10052000084640687F21C903884359494860084606
:1005300040680521C90408435549486008460068D9
:100540000121090608435249086000BF504800686D
:100550000121490608400028F8D04D48406880082D
:1005600080004B49486008464068022108434849DA
:10057000486000BF464840680C2108400828F9D16F
:10058000704710B54248006801210843404908609F
:10059000084640683F4908403D49486008460068B1
:1005A0003D4908403A49086008460068012189042D
:1005B000884337490860084640683F21090488435A
:1005C000334948600846C06A00090001C86208460D
:1005D000006BFF21543188432D4908630846406B66
:1005E00040084000486300208860FFF78FFF10BD7F
:1005F000F8B50025002400260027254840680C2176
:1006000008400546002D04D0042D06D0082D2AD11F
:1006100007E022482249086029E020482049086074
:1006200025E01B4840680F2189040840044618480B
:1006300040680321C90308400646A00C841C002E14
:1006400004D118486043164908600BE01048C06A9E
:100650000007000F471C3946104800F0DBFE6043DE
:100660000F49086003E00D480D49086000BF00BF56
:1006700007484068F021084000090B490D5C084814
:100680000068E84006490860F8BD0000002002400C
:10069000001002400CB8FFF8FFFFF6FE00127A00CF
:1006A0003000002000093D00340000204E49088041
:1006B000704770474D48C069022108434B49C861E3
:1006C0004B2080014A4908817D20C00048492039DB
:1006D000C86208460088012108434549203908803E
:1006E00001208881102001218140424A116000BF11
:1006F000704710B53E482038008A400840003C4909
:10070000203908823848008800286CD03648008894
:10071000401E3549088008460088002810D1032073
:1007200080040921C90688613348006800880421D3
:1007300088433149096808800120FFF77EFD52E0B7
:100740000920C006008A8109012088432B490978C5
:100750000840002819D02A480078401C2849087011
:1007600008460078032813DD032080040921C90608
:100770008861214800680088042188431E4909686F
:10078000088000201849088002E000201C490870F9
:100790001A480078002801D1012000E0002009213A
:1007A000C906098A49098843002819D015480078E4
:1007B000401C1449087008460078032813DD032004
:1007C00080040921C90688610B480068008804215B
:1007D000884309490968088000200349088002E02D
:1007E00000200849087010BD44000020001002409D
:1007F0002004004000E100E0480000200400002048
:100800004C0000204D00002010B5AE488069012149
:1008100089030843AB498861FF2111310920C006D3
:100820004162A848006B80088000A649086308461A
:10083000006B01210843A3490863A3480068A3494A
:100840000843A149086008460068891488439E4906
:100850000860084640680321090388439A494860B4
:10086000084640680121C905084397494860084681
:10087000406923210843944948614B21C9019448A8
:1008800000684A10801800F0C5FD8F4988810F214B
:100890001B2000F0E0F81B20012181408D4A1160EF
:1008A00000BF10BDC105C90D874A203211817047B4
:1008B00030B502460B46884800786424201A9842D6
:1008C00010DD00210BE0505C844C834D2D78605589
:1008D00081480078401C804C2070481CC1B299426D
:1008E000F1DB25E000210BE0505C7C4C7A4D2D784B
:1008F000605579480078401C774C2070481CC1B284
:10090000754800786424201A8842EDDC0020724C7F
:1009100020700BE0505C714C6F4D2D7860556E4827
:100920000078401C6C4C2070481CC1B29942F1DB2D
:10093000012030BD00B5034600BF6948007800289B
:10094000FBD1684803600020674908700978585C4B
:10095000FFF7A8FF5C480068802108435A490860F7
:1009600001205F49087000BD10B55748C0692021BB
:100970000840002823D0544820308088C4B25B4807
:100980005B49097844545A480078401C584908701B
:1009900058488179FF387C38445456488079401C47
:1009A000C1B25448817101468879C117090E0918EE
:1009B00009120902411ACAB24E498A714AE04248F4
:1009C000C0690121C9020840002815D03E48006ACC
:1009D00008433D490862464800780A2809D143483F
:1009E00000F0B5FA00204249087040490872487288
:1009F00030E000F030FC2DE03348C0694021084071
:100A0000002827D03B48C079401CC1B23948C17189
:100A1000017AC079814216D12B4800684021884371
:100A200029490860084600680421084326490860EF
:100A30000846006A40210843234908620120000457
:100A40002D49886106E02B49CA79FF397C39885CD9
:100A5000FFF728FF10BD10B5002819DA274A030751
:100A60001B0F083B9B089B00D2588307DC0EFF231B
:100A7000A3409A438B071B0E8407E40EA3401A433E
:100A80001E4B0407240F083CA408A4001A5118E0C8
:100A9000104A03231B02D21883089B00D2588307F5
:100AA000DC0EFF23A3409A438B071B0E8407E40E42
:100AB000A3401A43074B032424021B198408A400F3
:100AC0001A5110BD00100240003801402D000004F2
:100AD0003000002000E100E05200002086000020ED
:100AE0005500002058000020510000207C0000200C
:100AF000500000206C020020001400481CED00E0B3
:100B0000DD48006980210840002804D0DB48DA492C
:100B10004860DB4848607047D74800698021084337
:100B2000D54908617047D449096902221143D24A64
:100B3000116111464861096940221143CE4A116191
:100B400000BFCD49C968C907C90F0029F9D1CA49F1
:100B5000096902229143C84A116170470146088819
:100B6000704700B502465100C64BC818FFF7F6FFA4
:100B700000BDC14A126901231A43BF4B1A6100BF6D
:100B8000BD4AD268D207D20F002AF9D1018000BF36
:100B9000B94AD268D207D20F002AF9D1B64A1269EF
:100BA00052085200B44B1A617047F0B50646002453
:100BB0002CE0A106080EFFF7D4FF0746A100891C10
:100BC000C8B2FFF7CEFF054628043843AE49884235
:100BD0001AD1FFF795FF002410E0B7B2350CA10041
:100BE000A84A88183946FFF7C4FFA100891CA54A06
:100BF00088182946FFF7BDFF601C84B2052CECDB8A
:100C0000FFF78AFF0020F0BD601C84B2FA2CD0DB15
:100C10000120F8E730B504460D46FFF771FFA1B299
:100C2000AA00984BD018FFF7A4FF210CAA00921C31
:100C3000944BD018FFF79DFFFFF76EFF012030BDEA
:100C400000B50246D007C00F002807D0FE21114092
:100C50008C4BC818FFF782FF001200BD894950185D
:100C6000FFF77CFFC0B2F8E77EB504460E460020D1
:100C70000090019002902046FFF7E2FFB04201D1C0
:100C800000207EBD2046FFF7DBFFFF2827D1E007CD
:100C9000C00F002808D03102684601800088FF217B
:100CA00008436946088007E0684606800088FF21FF
:100CB0000902084369460880FFF722FF002508E083
:100CC0006A46118862106F4BD018FFF752FF681CFC
:100CD000C5B2052DF4DBFFF71FFF0020D1E700258B
:100CE00009E06900674A8818FFF738FF69006A461B
:100CF0005052681CC5B2052DF3DBE007C00F002879
:100D000011D0601040006946085C611049006A46D5
:100D10005052601040006946085A31020843611081
:100D20004900505212E0601040006946085AFF2105
:100D300009020840611049006A46505260104000A4
:100D40006946085A3043611049005052FFF7D8FEF7
:100D50004C48FFF7E8FE002509E06A006B46995A07
:100D60006A00484BD018FFF704FF681CC5B2052D78
:100D7000F3DBFFF7D1FE002083E770B586B00546B0
:100D80000E46142101A800F062FB2846FFF7E9FE99
:100D9000B04202D1002006B070BD2846FFF7E1FE48
:100DA000394988420BD1FFF7ABFE6900354A8818F4
:100DB0003146FFF7DEFEFFF7AFFE0020EBE7002431
:100DC00009E061002F4A8818FFF7C8FE610001AAF8
:100DD0005052601CC4B20A2CF3DB680001A90E5209
:100DE000FFF78EFE2748FFF79EFE002409E0620011
:100DF00001AB995A6200234BD018FFF7BAFE601C72
:100E0000C4B20A2CF3DBFFF787FE0020C3E73EB530
:100E100005460020009001900290002409E0610046
:100E2000184A8818FFF79AFE61006A465052601C03
:100E3000C4B2052CF3DB002406E06000285A6100F0
:100E40006A465052601CC4B2052CF6DBFFF758FE10
:100E50000C48FFF768FE002409E062006B46995ACF
:100E60006200084BD018FFF784FE601CC4B2052C4A
:100E7000F3DBFFF751FE3EBD002002402301674532
:100E8000AB89EFCD003C0008FFFF00000120704758
:100E900070470920C006008A0920C006008A03485E
:100EA00040696021084301494861704700040140DE
:100EB00070470920C006008A4021084000280CD055
:100EC00008200921C90688610420886101205A4947
:100ED0000870062059490968088070470920C00633
:100EE000008A2021084000280CD088030921C90667
:100EF00088610420886100204F49087005204F490F
:100F000009680880704710B50446012C07D1FFF727
:100F1000E5FF4B4909680888FFF7C8FB16E0022C7B
:100F200007D1FFF7C6FF474909680888FFF7BEFBEE
:100F30000CE0032C0AD10120C0040921C9068861F4
:100F40004010886188610020FFF7B0FB10BD10B52C
:100F50000446207A0002617A08433B4909680988FF
:100F6000884264D10120FFF768F920788021084386
:100F7000364908702078012819D1FFF764F92E4806
:100F80000078002807D0FFF7A9FF2D4909680888D5
:100F9000FFF78CFB06E0FFF78CFF2A4909680888F9
:100FA000FFF784FB24480078284948703FE0207808
:100FB00003280ED10120FFF746F9FFF78FFF2049E4
:100FC00009680888FFF772FB1B4800781F494870C2
:100FD0002DE0207802280ED10120FFF734F9FFF729
:100FE00068FF184909680888FFF760FB1248007815
:100FF000164948701BE02078042808D10920C00653
:10100000008A022108404010104948700FE0207803
:1010100005280BD160780A2809DAE2781202A37851
:101020001A4311466078FFF7A8FE00E000BF0020D9
:101030002072607210BD00000400002064000020D7
:101040006C00002070000020680000205C00002080
:1010500021494861886107211F4A1161704701B524
:101060001E490098086000BF1C4800680028FBD19A
:1010700008BD1A480068002804D018480068401EBF
:101080001649086070471648C069FF2101310843BE
:101090001349C8611920400112490881642011498F
:1010A0002039C86208460088012108430D492039CB
:1010B0000880012088811320012181400A4A1160A3
:1010C00000BF704707482038008A400840000549A3
:1010D000203908827047000000E000E07400002022
:1010E000001002402020004000E100E030B5024640
:1010F0000020002A1BD0A04817E01478521CC5B26B
:101100006C40050A2D02601900230BE0C407E40FB0
:10111000002C04D04408994D6C40204600E0400863
:101120005C1CE3B2082BF1DB491E0029E5DC30BD75
:10113000F0B5934DED792E02914D2D7A7319904DA6
:101140006D7A2E028E4DAD7A74191D19402D1BDC5F
:10115000032100200BE0C5186E008A4DAA5B161211
:10116000FF3D023D6E544F1CEA55891C401CA042B5
:10117000F1DB45062E0E824DEE7145006D1DEEB27F
:10118000804D7A352E720CE07D4DAD798026354349
:101190007B4EB57102267A4DEE710526FF358135FD
:1011A0002E72F0BD10B57648C07901027448007AFD
:1011B000081884B273487A30817901727048407A95
:1011C00001026F48807A081881B262006D4881522E
:1011D000204600F0DFF810BDF8B56948C07901027B
:1011E0006748007A0E186648407A01026448807A9F
:1011F0000F18F019402820DC6148C07A00900725BC
:10120000002413E05E48401D405D02025C48401D22
:10121000691C405C101881B2A019420059488152E3
:10122000AD1CA11988B200F0B5F8641CBC42E9DB22
:10123000082154487A3001720CE0514880798021AD
:1012400008434F49887102214D48C1710521FF3083
:1012500081300172F8BD10B5494840794A490968A2
:10126000097888427ED147487A308079811E444887
:10127000401DFFF73BFF044642487A308079801ECC
:101280003F49491D085CE1B288426FD13D487A3040
:101290008079401E3A49491D085C210A884265D17F
:1012A00037488079032802D1FFF742FF21E0344814
:1012B0008079042802D1FFF73BFF1AE0304880799B
:1012C000062802D1FFF76EFF13E02D488079102821
:1012D00002D1FFF781FF0CE0294880798021084383
:1012E0002749887101212648C1710521FF308130CD
:1012F000017224487A30007A811E2148401DFFF790
:10130000F5FE04461F487A30007A801E1C49491DAC
:101310000C542004020E1B487A30007A401E0A54F6
:10132000002118487A30C1711848006A40210843EA
:1013300016490862084600684021084313490860BE
:1013400008460068042188431049086001201049BC
:10135000886100210B487A30C1710146CA79FF3992
:101360007C3900E002E0885CFFF79CFA0021054828
:101370007A30817110BD0000FFFF000001A0000065
:10138000EC000020F201002078000020003801402D
:101390000014004810B504460A2C05DA63001C4A04
:1013A000D15AE0B2FFF7E9FC0B2C17D11848C08ADC
:1013B000022802D1FFF7A7FD0CE01548C08A0128DA
:1013C00002D1FFF7A0FD05E01148C08A032801D132
:1013D000FFF799FD00210E48C18218E00C2C0AD1BC
:1013E0000B48008B002802D00120FFF78CFD002164
:1013F000074801830BE00D2C09D10548408B0028DC
:1014000005D00320FFF77FFD00210148418310BD77
:10141000F201002030B50B460146002020220124B5
:1014200009E00D46D5409D4205D31D469540491B18
:101430002546954040191546521E002DF1DC30BD61
:10144000D2B201E00270401C491EFBD2704700225C
:10145000F6E710B513460A4604461946FFF7F0FFB3
:10146000204610BD064C0125064E05E0E36807CC7A
:101470002B430C3C98471034B442F7D3FEF724FEBC
:10148000A8140008C814000802E008C8121F08C108
:10149000002AFAD170477047002001E001C1121FF5
:1014A000002AFBD170470000C8140008000000208B
:1014B0007C00000088140008441500087C0000200F
:1014C000FC05000098140008000000000000000067
:1014D000F2010020F6010020F801002004020020A3
:1014E00006020020080200200A0200200C02002050
:1014F000100200201A020020006CDC020000000034
:1015000000000000010203040607080900000000B3
:1015100006020020000000000000000000000000A3
:101520000000000000000000000000000602002093
:10153000F2010020F6010020F80100200000000068
:04154000F201002094
:04000005080000C12E
:00000001FF
